{
  "contractName": "Inbox",
  "abi": [
    {
      "inputs": [
        {
          "internalType": "string",
          "name": "_init",
          "type": "string"
        }
      ],
      "stateMutability": "nonpayable",
      "type": "constructor"
    },
    {
      "inputs": [],
      "name": "message",
      "outputs": [
        {
          "internalType": "string",
          "name": "",
          "type": "string"
        }
      ],
      "stateMutability": "view",
      "type": "function",
      "constant": true
    },
    {
      "inputs": [
        {
          "internalType": "string",
          "name": "_new",
          "type": "string"
        }
      ],
      "name": "setMessage",
      "outputs": [],
      "stateMutability": "nonpayable",
      "type": "function"
    }
  ],
  "bytecode": "0x60806040523480156200001157600080fd5b506040516200080e3803806200080e8339818101604052810190620000379190620002a4565b80600090805190602001906200004f92919062000057565b50506200035a565b828054620000659062000324565b90600052602060002090601f016020900481019282620000895760008555620000d5565b82601f10620000a457805160ff1916838001178555620000d5565b82800160010185558215620000d5579182015b82811115620000d4578251825591602001919060010190620000b7565b5b509050620000e49190620000e8565b5090565b5b8082111562000103576000816000905550600101620000e9565b5090565b6000604051905090565b600080fd5b600080fd5b600080fd5b600080fd5b6000601f19601f8301169050919050565b7f4e487b7100000000000000000000000000000000000000000000000000000000600052604160045260246000fd5b620001708262000125565b810181811067ffffffffffffffff8211171562000192576200019162000136565b5b80604052505050565b6000620001a762000107565b9050620001b5828262000165565b919050565b600067ffffffffffffffff821115620001d857620001d762000136565b5b620001e38262000125565b9050602081019050919050565b60005b8381101562000210578082015181840152602081019050620001f3565b8381111562000220576000848401525b50505050565b60006200023d6200023784620001ba565b6200019b565b9050828152602081018484840111156200025c576200025b62000120565b5b62000269848285620001f0565b509392505050565b600082601f8301126200028957620002886200011b565b5b81516200029b84826020860162000226565b91505092915050565b600060208284031215620002bd57620002bc62000111565b5b600082015167ffffffffffffffff811115620002de57620002dd62000116565b5b620002ec8482850162000271565b91505092915050565b7f4e487b7100000000000000000000000000000000000000000000000000000000600052602260045260246000fd5b600060028204905060018216806200033d57607f821691505b60208210811415620003545762000353620002f5565b5b50919050565b6104a4806200036a6000396000f3fe608060405234801561001057600080fd5b50600436106100365760003560e01c8063368b87721461003b578063e21f37ce14610057575b600080fd5b6100556004803603810190610050919061031a565b610075565b005b61005f61008f565b60405161006c91906103eb565b60405180910390f35b806000908051906020019061008b92919061011d565b5050565b6000805461009c9061043c565b80601f01602080910402602001604051908101604052809291908181526020018280546100c89061043c565b80156101155780601f106100ea57610100808354040283529160200191610115565b820191906000526020600020905b8154815290600101906020018083116100f857829003601f168201915b505050505081565b8280546101299061043c565b90600052602060002090601f01602090048101928261014b5760008555610192565b82601f1061016457805160ff1916838001178555610192565b82800160010185558215610192579182015b82811115610191578251825591602001919060010190610176565b5b50905061019f91906101a3565b5090565b5b808211156101bc5760008160009055506001016101a4565b5090565b6000604051905090565b600080fd5b600080fd5b600080fd5b600080fd5b6000601f19601f8301169050919050565b7f4e487b7100000000000000000000000000000000000000000000000000000000600052604160045260246000fd5b610227826101de565b810181811067ffffffffffffffff82111715610246576102456101ef565b5b80604052505050565b60006102596101c0565b9050610265828261021e565b919050565b600067ffffffffffffffff821115610285576102846101ef565b5b61028e826101de565b9050602081019050919050565b82818337600083830152505050565b60006102bd6102b88461026a565b61024f565b9050828152602081018484840111156102d9576102d86101d9565b5b6102e484828561029b565b509392505050565b600082601f830112610301576103006101d4565b5b81356103118482602086016102aa565b91505092915050565b6000602082840312156103305761032f6101ca565b5b600082013567ffffffffffffffff81111561034e5761034d6101cf565b5b61035a848285016102ec565b91505092915050565b600081519050919050565b600082825260208201905092915050565b60005b8381101561039d578082015181840152602081019050610382565b838111156103ac576000848401525b50505050565b60006103bd82610363565b6103c7818561036e565b93506103d781856020860161037f565b6103e0816101de565b840191505092915050565b6000602082019050818103600083015261040581846103b2565b905092915050565b7f4e487b7100000000000000000000000000000000000000000000000000000000600052602260045260246000fd5b6000600282049050600182168061045457607f821691505b602082108114156104685761046761040d565b5b5091905056fea2646970667358221220e1cd7e72f4d4d52026b2bb922dcef1fd70ac40cca30c138899077fe58b95a0e364736f6c63430008090033",
  "immutableReferences": {},
  "source": "// SPDX-License-Identifier: MIT\npragma solidity ^0.8.9;\n\ncontract Inbox {\n    string public message;\n\n    constructor(string memory _init) {\n        message = _init;\n    }\n\n    function setMessage(string memory _new) public {\n        message = _new;\n    }\n}\n",
  "sourcePath": "/Volumes/WORK/study/1.solidity/lottery-solidity/contracts/Inbox.sol",
  "compiler": {
    "name": "solc",
    "version": "0.8.9+commit.e5eed63a.Emscripten.clang"
  },
  "schemaVersion": "3.4.3",
  "updatedAt": "2021-11-02T23:10:49.881Z",
  "networkType": "ethereum",
  "devdoc": {
    "kind": "dev",
    "methods": {},
    "version": 1
  },
  "userdoc": {
    "kind": "user",
    "methods": {},
    "version": 1
  }
}